:020000040000FA
:10000000800400206D0200007102000073020000F5
:100010007502000077020000790200000000000075
:100020000000000000000000000000007B02000053
:100030007D020000000000007F020000810200003D
:10004000830200008302000083020000830200009C
:10005000830200008302000083020000830200008C
:10006000830200008302000083020000830200007C
:10007000830200008302000083020000830200006C
:10008000830200008302000083020000830200005C
:10009000830200008302000083020000830200004C
:1000A000830200008302000083020000830200003C
:1000B000830200008302000083020000830200002C
:1000C00083020000E10600008302000083020000BA
:1000D000830200008302000083020000830200000C
:1000E00083020000830200008302000083020000FC
:1000F00083020000830200008302000083020000EC
:1001000083020000830200008302000083020000DB
:1001100083020000830200008302000083020000CB
:1001200083020000830200008302000083020000BB
:1001300083020000830200008302000083020000AB
:1001400000000000000000000000000000000000AF
:10015000830200008302000083020000830200008B
:10016000000000000000000000000000000000008F
:10017000000000000000000000000000000000007F
:10018000000000000000000000000000000000006F
:10019000000000000000000000000000000000005F
:1001A000000000000000000000000000000000004F
:1001B000830200008302000083020000830200002B
:1001C000830200008302000083020000830200001B
:1001D000830200008302000083020000830200000B
:1001E00083020000830200008302000083020000FB
:1001F00083020000830200008302000083020000EB
:10020000830200008302000083020000000000005F
:1002100083020000830200008302000083020000CA
:1002200083020000830200008302000083020000BA
:1002300083020000830200008302000083020000AA
:10024000830200008302000083020000830200009A
:10025000830200008302000083020000830200008A
:1002600083020000830200008302000000F00AB84D
:10027000FEE7FEE7FEE7FEE7FEE7FEE7FEE7FEE756
:10028000FEE7FEE700F002F800F03AF80AA090E876
:10029000000C82448344AAF10107DA4501D100F041
:1002A0002FF8AFF2090EBAE80F0013F0010F18BFD4
:1002B000FB1A43F001031847C4070000E4070000DD
:1002C000103A24BF78C878C1FAD8520724BF30C882
:1002D00030C144BF04680C60704700000023002454
:1002E00000250026103A28BF78C1FBD8520728BF46
:1002F00030C148BF0B6070471FB51FBD10B510BDA2
:1003000000F069F81146FFF7F7FF00F009FB00F075
:1003100087F803B4FFF7F2FF03BC00F08BF800008E
:1003200072B6704762B67047EFF3108072B67047CE
:1003300080F31088704730BF704702480249014A75
:10034000024B7047800000208004002080000020C5
:100350004FF0013C50F8042B51F8043B9A4221D154
:10036000A2EB0C03934313EACC1317D150F8042BE0
:1003700051F8043B9A4215D1A2EB0C03934313EAC4
:10038000CC130BD150F8042B51F8043B9A4209D1FD
:10039000A2EB0C03934313EACC13DBD04FF0000025
:1003A000704700BFD01A01BAB1FA81F101F018010B
:1003B00022FA01F0CB40C1F12001DBB2C0B2C01A79
:1003C0002CFA01F3D11A914311EAC311E6D1704717
:1003D000704770477047754600F028F8AE46050034
:1003E0006946534620F00700854618B020B5FFF750
:1003F000A4FFBDE820404FF000064FF000074FF08B
:1004000000084FF0000B21F00701AC46ACE8C00932
:10041000ACE8C009ACE8C009ACE8C0098D4670473B
:100420000446AFF300802046FFF773FF0048704793
:100430001C00002001491820ABBEFEE72600020088
:100440007047000008B51B48006840F001001949DA
:100450000860184830380068009016483038006846
:1004600000901548006820F00F0013490860084606
:10047000006840F00100086043F210200F49086254
:100480000846006820F0010008600846406920F036
:100490000F0048610A4808644FF4C02048640846C9
:1004A000806820F0010088600846006840F0010084
:1004B000086008BD38E60F40C48F03400080034049
:1004C000230109000121124A916200BF10494968C5
:1004D00011F0010FFAD00E49896CC1F30B010160D4
:1004E0000B49896CC1F30B0141600949896CC1F367
:1004F0000B0181600649896CC1F30B01C16004499D
:10050000896CC1F30B0101610121014AD16070477F
:10051000008003401D48006F40F000401B49086701
:100520000846006F40F4006008670846006E20F43B
:10053000F86008660846006E00F5A8600866084680
:10054000006F20F0700008670846006F08670846D3
:10055000006F20F4005008670846006F40F08040AC
:1005600008670846006F20F0FE5000F180700867B1
:1005700000BF0648006D10F0400FFAD00348006F2E
:1005800020F40060014908677047000000E00F4058
:100590001D48006840F008001B49086000BF1B4868
:1005A000006810F0080FFAD019480068194908438C
:1005B00017490860081D006840F08000091D0860A8
:1005C000081D006820F08F00091D0860081D0068E4
:1005D000114908400E490C3108601048006840F08D
:1005E0008F000E4908600D482030006820F08F0011
:1005F0000A49203108600648001F006840F08F005B
:100600000349091F0860704708E60F4008EA0F40D9
:10061000207500404B434F4C0000FF0F007400401A
:100620001748006840F010001549086000BF1448E2
:10063000006810F0100FFAD01248006820F01F0078
:10064000104908600F482030006840F01F000D4935
:10065000203108600C48006820F01F000A4908603B
:100660000948103000686FF3130007491031086023
:10067000081F006840F01F00091F08607047000055
:1006800008E60F40004402401C4502401048006844
:1006900040F020000E49086000BF0E48006810F0CE
:1006A000200FFAD00C48006840F00E000A4908609C
:1006B0000A48006840F00E000849086006480838FB
:1006C000006840F00E0004490839086070470000D7
:1006D00008E60F4008EA0F4024550240005402404B
:1006E00010B53148006840B23049314A1278885418
:1006F0002F480078401C2E4908702EA12B48FFF788
:1007000027FE50B92C48006880F001002B49C1F841
:100710003C0228A000F0F8F83EE029A12348FFF7AA
:1007200017FE50B92448006880F002002349C1F840
:100730003C0223A000F0E8F82EE022A11B48FFF7BE
:1007400007FE50B91C48006880F004001B49C1F83E
:100750003C021CA000F0D8F81EE01BA11348FFF7D4
:10076000F7FD50B91448006880F008001349C1F83B
:100770003C0215A000F0C8F80EE014A10B48FFF7EA
:10078000E7FD48B90C48006880F0F0000B49C1F85B
:100790003C020EA000F0B8F80020054908701020B7
:1007A0000149486410BD000000E000400100002045
:1007B00000000020300000003C720040007000404B
:1007C000310000003200000033000000340000005F
:1007D0001C48006840F004001A4908601A48006884
:1007E00040F008001949C1F808011948006840F0B4
:1007F0004000174908601748006840F0400015495C
:1008000008601548006840F08070134908604FF098
:10081000000012490863124908604FF402700F4942
:1008200048624FF0350088624FF06000C86240F2C5
:10083000012008634FF0100088634FF0020009495F
:100840000860704718E60F4008E10F4000E00F40D5
:100850001C750040207400402C75004000E00040F2
:10086000C8EF004004E100E01948006840F00800CB
:10087000174908601748006840F004001649C1F89D
:1008800008011648006840F0C00014490860144888
:10089000006840F0C000124908601248006840F04B
:1008A0008050104908604FF000000F4908630F495D
:1008B00008604FF402700C4948624FF035008862BE
:1008C0004FF06000C86240F20110086370470000FA
:1008D00018E60F4008E10F4000E00F401C650040A3
:1008E000206400402C65004000F00040C8FF00403C
:1008F00000BF0449896911F0200FFAD1014908604D
:100900007047000000F0004000B5024603E0107898
:10091000FFF7EEFF521C10780028F8D100BD000050
:100920000EB5FFF7F7FDFFF753FFFFF79DFFFFF74A
:10093000ADFEFFF775FEFFF72BFEFFF783FD0020EE
:100940003449886334A0FFF7DFFF30208DF80500BD
:100950008DF806008DF807008DF808008DF8090065
:1009600056E02E48FFF7AEFD2C480068B0F5006F4A
:1009700006D902202749886331208DF8000002E063
:1009800030208DF8000025484068B0F5006F06D98A
:1009900004202049886331208DF8010002E03020D6
:1009A0008DF801001D488068B0F5006F06D9082059
:1009B0001849886331208DF8020002E030208DF85C
:1009C00002001648C068B0F5006F06D9062011492C
:1009D000886331208DF8030002E030208DF8030099
:1009E0000E480069B0F5006F06D90A2009498863EE
:1009F00031208DF8040002E030208DF804006846B4
:100A0000FFF782FF06A0FFF77FFF064800F00CF813
:100A1000A7E70000005002400A0D00000800002077
:100A20002000000020A107000146124A126842F08F
:100A30000102104B1A6000BF0E4A126812F0010F3B
:100A4000FAD000220C4BDA6004221A6001225A60AC
:100A50000F229A6201225A621A46D26842F00102BB
:100A6000DA60002003E00122034B5A62401C8842F6
:100A7000F9DB704704E60F40000003409C0A0000C9
:100A80000000002008000000C0020000A40A0000CE
:100A90000800002078040000DC02000000000000D4
:040AA0000000000052
:040000050000026D88
:00000001FF
